:020000040800F2
:100000009004002001010008730F0008710D000822
:10001000710F000849010008531200080000000099
:10002000000000000000000000000000970F000822
:100030004B01000800000000950F0008990F000810
:100040001B0100081B0100081B0100081B01000820
:100050001B0100081B0100081B0100081B01000810
:100060001B0100081B0100081B0100081B01000800
:100070001B0100081B0100081B0100081B010008F0
:100080001B0100081B0100081B0100081B010008E0
:100090001B0100081B0100081B0100081B010008D0
:1000A0001B0100081B0100081B0100081B010008C0
:1000B0001B0100081B010008000000001B010008D4
:1000C0001B01000800000000000000001B010008E8
:1000D000000000001B0100081B01000800000000D8
:1000E0001B0100081B0100081B010008DFF80CD0F1
:1000F00000F018F80048004775120008900400202E
:100100000648804706480047FEE7FEE7FEE7FEE7B1
:10011000FEE7FEE7FEE7FEE7FEE7FEE70110000868
:10012000ED000008064C074D06E0E06840F00103D2
:1001300094E8070098471034AC42F6D3FFF7DAFF93
:10014000D4120008F4120008FEE7704770B50446A8
:1001500000F0F6F80546601C02D00448007804441C
:1001600000F0EEF8401BA042FAD370BD0000002062
:100170002DE9F84FDFF894A100220AF1040B144690
:100180004FF0010C4FF00F090BF1040E0B680CFA45
:1001900004F52B40AB4271D15D4E4F68A7EB0608CA
:1001A000B7422BD00DDC032F34D005DC37B3012F41
:1001B00019D0022F2FD11BE0112F16D0122F2AD1C8
:1001C00019E0B8F5881F19D006DCB8F5803F15D0C6
:1001D000B8F5801F1FD111E0B8F5001F0ED0B8F59B
:1001E000041F18D10AE0CA6815E0CA68121D12E09F
:1001F000CA6808320FE0CA680C320CE08A682AB17B
:10020000012A4FF0080203D0456104E0042202E015
:10021000056100E00022FF2B01D8074601E000F154
:1002200004074FEA840601D9A6F120063D6809FAC1
:1002300006F825EA080502FA06F645EA06053D60D5
:100240004D68ED005CD5334DAE6946F00106AE61F8
:10025000AD6924F0030605F0010500952E4D7719D0
:10026000BD68A607360F09FA06F825EA0805DFF883
:10027000AC80404503D14FF0000810E040E0DFF8CB
:10028000A080404502D14FF0010808E0DFF89480DB
:10029000404502D14FF0020801E04FF0030808FA90
:1002A00006F848EA0508C7F808804D68ED0305D54B
:1002B000DAF800501D43CAF8005004E0DAF8006094
:1002C0009E43CAF800604D68DBF80060AD035D46F0
:1002D00001D51E4300E09E432E604D68DEF80060AD
:1002E000ED02754601D51E4300E09E432E604D6829
:1002F000AD020D4D2E6801D51E4300E09E432E60D9
:10030000641C102CFFF442AFBDE8F88F00040140DC
:1003100000001110001002400000014000080140E0
:10032000000C0140001001400C040140C2684A402A
:10033000C26070470AB1016170470904FBE7000021
:100340000148806870470000000000200248816872
:10035000027811448160704700000020074810B502
:10036000016841F010010160032000F091F80020C5
:1003700000F006F800F024F8002010BD0020024034
:1003800070B50D4D04464FF47A712878B1FBF0F04A
:100390000A490968B1FBF0F000F001FB48B9102CE4
:1003A00007D200222146501E00F052F800206C6057
:1003B00070BD012070BD0000000000200C00002076
:1003C000214808B5816941F001018161816901F02D
:1003D00001010091C16941F08051C161C06900F023
:1003E00080500090032000F053F8002211466FF077
:1003F0000B0000F02DF8002211466FF00A0000F00B
:1004000027F8002211466FF0090000F021F80022C1
:100410001146501F00F01CF800221146101F00F07A
:1004200017F800221146901E00F012F80022114623
:10043000501E00F00DF80548416821F0E06141F0E0
:100440008061416008BD00000010024000000140D2
:10045000F0B40E4B1B680C46C3F30223C3F107052F
:10046000042D00D90425191D072901D2002300E01D
:10047000DB1E012606FA05F1491E214099409E40E7
:10048000761E16403143F0BC00F074BD0CED00E068
:10049000064900F0070208684FF6FF03184040EADB
:1004A0000220034A10430860704700000CED00E092
:1004B0000000FA052DE9F047DFF83C8105460E46BD
:1004C000D8F8000000F00700B0420CD2D8F80010B5
:1004D00021F007013143C8F80010D8F8000000F0FF
:1004E0000700B04263D12878444C800705D5606886
:1004F000A96820F0F000084360602878C00745D064
:100500006868012816D02168022816D089070029BA
:100510004DDA616821F0030101436160FFF710FFCC
:100520006968074641F2883001290FD002298146C7
:1005300019D027E021688903E9E78901E7E700BFCF
:10054000FFF7FEFEC11B494501D918E081466068EE
:10055000C0F381000128F3D118E000BFFFF7F0FEDF
:10056000C11B49450BD86068C0F381000228F5D152
:100570000CE000BFFFF7E4FEC11B494502D9032090
:10058000BDE8F087606810F00C0FF3D1D8F80010C8
:10059000404601F00701B1420BD9016821F0070183
:1005A00031430160006800F00700B04201D0012033
:1005B000E6E72878400705D56068E96820F4E06040
:1005C000084360602878000706D56068296920F430
:1005D000605040EAC100606000F01CF86168084AA1
:1005E000C1F30311515CC840064908600020FFF7C1
:1005F000C7FE0020C4E700000020024000100240B7
:10060000C41200080C000020014800687047000078
:100610000C00002012A185B00FC98DE80F0014A0B6
:10062000144A006804905168134801F00C03042B2D
:1006300010D0082B0ED1C1F38343C9031DF803006A
:100640000AD5516804AAC1F34041515C0A4A50439B
:10065000B0FBF1F005B0704708494843FAE70000E5
:1006600002030405060708090A0B0C0D0E0F1010F3
:10067000010200000010024000127A0000093D0053
:100680002DE9F84F04460078B94DC00748D0686896
:10069000C0F38100012807D06868C0F381000228F8
:1006A00009D16868C00306D52868800338D560681A
:1006B00000286FD034E06068B0F5803F0BD010B1F7
:1006C000B0F5A02F11D0286820F480302860286869
:1006D00020F4802002E0286840F4803028606068C0
:1006E00088B1FFF72DFE064609E0286840F4802017
:1006F0002860F0E7FFF724FE801B642875D828687F
:100700008003F7D50CE0FFF71BFE064605E000BFAF
:10071000FFF716FE801B6428F0D828688003F7D402
:100720002078944E80074FF001094FF000083BD528
:10073000686810F00C0F07D06868C0F381000228C9
:1007400009D16868C00306D42868800714D52069D9
:1007500001281FD110E02069B0B1C6F80090FFF762
:10076000EFFD074605E000BFFFF7EAFDC01B0228CA
:10077000C4D828688007F7D52868616920F0F80098
:1007800040EAC10028600FE0C6F80080FFF7D8FDFE
:10079000074606E0E9E000BFFFF7D2FDC01B0228D4
:1007A00023D828688007F7D4207800072CD5724812
:1007B000A169D9B1C0F80090FFF7C2FD074604E077
:1007C000FFF7BEFDC01B02280FD8686A8007F7D567
:1007D0006A484FF4FA510068B0FBF1F0009000BF96
:1007E0000098411E0091FAD20EE080E0C0F800802F
:1007F000FFF7A6FD074604E0FFF7A2FDC01B022895
:1008000075D8686A8007F7D42078400760D5E86912
:100810000027C00008D4E86940F08050E861E8692A
:10082000012700F08050009055480168C90513D495
:100830000168834641F480710160FFF781FD8246C3
:1008400006E000BFFFF77CFDA0EB0A0064284ED84D
:10085000DBF80000C005F5D5E06801280AD008B132
:10086000052813D0286A20F001002862286A20F0A9
:10087000040002E0286A40F001002862E06841F2CA
:10088000883B98B1FFF75CFD82460BE0286A40F098
:1008900004002862EEE700BFFFF752FDA0EB0A015B
:1008A00059455AD8286A8007F6D50CE0FFF748FD6D
:1008B000824605E0FFF744FDA0EB0A0159454CD8FC
:1008C000286A8007F6D41FB1E86920F08050E861FB
:1008D000E06988B36968C1F38101022945D0022823
:1008E000C6F8608004D0FFF72BFD044638E034E002
:1008F000FFF726FD074604E0FFF722FDC01B022894
:100900002BD828688001F7D4206AB0F5803F05D144
:100910006868A16820F4003008436860D4E90801E1
:100920000843696821F4741108436860C6F8609050
:10093000FFF706FD044606E015E000BFFFF700FDE7
:10094000001B022809D828688001F7D50BE000BFFA
:10095000FFF7F6FC001B022802D90320BDE8F88F40
:1009600028688001F4D40020F8E70120F6E70000B1
:100970000010024000004242800442420C0000206D
:10098000007000404FF0E0210428086903D020F0F7
:1009900004000861704740F00400FAE7704710B5A2
:1009A000401EB0F1807F01D3012010BD4FF0E02444
:1009B00060610F21601700F0DDFA0020A0610720C0
:1009C0002061002010BD10B5FFF7E8FF10BD10B585
:1009D00090F83C20012A25D0012280F83C20CA68EA
:1009E0008C6822F4407222434C6822F480622243D5
:1009F0000C6822F4006222430C6922F480522243E4
:100A00004C6922F4005222438C6922F48042224332
:100A100022F40041026800232143516480F83C30F5
:100A2000002010BD022010BD30B590F83C20012AF6
:100A300020D0012280F83C20022380F83D3003685A
:100A40005C6824F070045C6003685C680D682C438B
:100A50005C6003689C6824F080049C6003689C6868
:100A600049680C439C6080F83D20002180F83C10D0
:100A7000084630BD022030BD10B5040003D094F804
:100A80003D0010B107E0012010BD002084F83C00BB
:100A9000204600F00DF8022084F83D00211D20685A
:100AA00000F0D2FA012084F83D00002010BD0000C3
:100AB00008B50C4A01680C48914207D1816941F49C
:100AC00000618161806900F4006009E0074A914299
:100AD00007D1C16941F00201C161C06900F00200A3
:100AE000009008BD002C01400010024000040040AE
:100AF000022180F83D1001680A6842F001020A6094
:100B0000012180F83D100020704770B5044690F830
:100B10003C00012817D0012584F83C50022084F8BD
:100B20003D002068826822F0770222F47F428260D2
:100B30000868502837D00DDC202859D005DC88B350
:100B4000102841D151E0022070BD302853D04028F8
:100B50003AD13FE060282ED070280BD0B0F5805FEE
:100B600003D0B0F5005F2FD110E02068816821F03C
:100B7000070115E0CB68D1E90121206800F092FA65
:100B80002168886840F0770088601DE0CB68D1E973
:100B90000121206800F086FA2068816841F48041D4
:100BA000816011E01EE0CA684968206800F02EFBF1
:100BB0005021206806E0CA684968206800F037FBC9
:100BC0006021206800F078FA84F83D50002084F815
:100BD0003C0070BDCA684968206800F017FB4021DE
:100BE0002068EFE700212068ECE710212068E9E7A2
:100BF00020212068E6E730212068E3E71FB5154A89
:100C0000016802241448914219D14FF4F061CDE9F2
:100C1000001469460394FFF7ABFA0320CDE9000402
:100C200069460E480394FFF7A3FA0D48416821F086
:100C3000C00141F0E06141F0400141601FBD094A3F
:100C40009142FBD14021CDE9001469460394FFF79E
:100C50008FFA1FBD002C014000080140000C01402C
:100C6000000001400004004070B5044690F83C00CC
:100C70000D4601280DD0012684F83C60022084F83E
:100C80003D0042B1042A18D0082A2AD00C2A4DD19E
:100C900039E0022070BD206800F016FA20688169F2
:100CA00041F0080181612068816921F004018161BE
:100CB000206881692A69114311E0206800F02CFA4C
:100CC0002068816941F4006181612068816921F4B3
:100CD00080618161206881692A6941EA022181611C
:100CE00024E0206800F044FA2068C16941F008015E
:100CF000C1612068C16921F00401C1612068C16936
:100D00002A69114311E0206800F05EFA2068C16989
:100D100041F40061C1612068C16921F48061C16151
:100D20002068C1692A6941EA0221C16184F83D60F5
:100D3000002084F83C0070BD10B5040003D094F886
:100D40003D0010B107E0012010BD002084F83C00F8
:100D5000204600F00CF8022084F83D00211D206898
:100D600000F072F9012084F83D00002010BD7047AA
:100D7000FEE70000134810B5816986B041F0040118
:100D80008161816901F004010491816941F00801E8
:100D9000816180690C4C00F008000490002207215A
:100DA0002046FFF7C7FA072000900120019000209D
:100DB00002900220039069462046FFF7D9F906B059
:100DC00010BD0000001002400008014010B5394875
:100DD00094B03749016003210024C0E90114C72100
:100DE000C0E9031444618461FFF746FE18B1432152
:100DF00031A000F02FFA4FF480500E900EA92D482C
:100E0000FFF783FE18B149212BA000F023FA2948EF
:100E1000FFF792FF18B14E2127A000F01BFA1294A1
:100E200012A924481394FFF7FFFD18B1552122A001
:100E300000F010FA6020CDE90004029403940494B9
:100E40000594002269461B480694FFF70DFF18B170
:100E5000612119A000F0FEF9042269461548FFF748
:100E600003FF18B1662114A000F0F4F908226946C6
:100E70001048FFF7F9FE18B16B210FA000F0EAF956
:100E80000794089409944FF400500A94CDE90B405C
:100E900007A908480D94FFF79AFD18B1772106A01D
:100EA00000F0D8F90348FFF7A9FE14B010BD000008
:100EB000002C0140100000202E2E2F5372632F743F
:100EC000696D2E630000000010B524488EB02249E1
:100ED000016003210024C0E90114C721C0E9031403
:100EE0008461FFF7C9FD18B18C211DA000F0B2F993
:100EF0004FF48050079007A91848FFF706FE18B175
:100F0000922117A000F0A6F91448FFF715FF18B1B9
:100F1000972113A000F09EF90B940BA90F480C9495
:100F2000FFF782FD18B19E210DA000F093F960201B
:100F3000CDE9000402940022694608480494FFF7B2
:100F400093FE18B1A72106A000F084F90348FFF72B
:100F500055FE0EB010BD00000004004050000020FF
:100F60002E2E2F5372632F74696D2E6300000000C4
:100F7000FEE770470907090E002806DA00F00F00A7
:100F800000F1E02080F8141D704700F1E02080F8A7
:100F9000001470477047704710B5FFF7D7F9BDE8E8
:100FA0001040FFF710BD10B590B002200090012056
:100FB000049010200024059007946846FFF760FB1A
:100FC00000B1FEE70F20CDE90A040C940D94002136
:100FD0000AA80E94FFF76EFA00B1FEE7FFF714FBC4
:100FE0004FF47A71B0FBF1F0FFF7D9FC0420FFF762
:100FF000C9FC00221146501EFFF72AFA10B010BD9E
:101000000D48016841F00101016041680B4A11403F
:10101000416001680A4A11400160016821F48021A1
:101020000160416821F4FE0141604FF41F018160BD
:101030000449C00308607047001002400000FFF838
:10104000FFFFF6FE08ED00E070B50268134B144C8C
:101050004FF08046984203D0B04201D0A04203D165
:1010600022F070054A682A43984203D0B04201D06A
:10107000A04203D122F44074CA68224322F08004C3
:101080004A69224302608A68C2620A6882629842A0
:1010900001D1096901630121416170BD002C01404A
:1010A0000004004010B5846842EA032224F47F441F
:1010B0000A432243826010BD826822F070020A4314
:1010C00042F007018160704730B5026A22F00102E8
:1010D0000262026A4368846924F073050C682C4339
:1010E00022F002058A682A430A4DA8420BD122F059
:1010F0000805CA6823F440732A434D6922F00402AC
:101100001D438B692B4343608461496841630262DC
:1011100030BD0000002C014030B5026A22F0100200
:101120000262026A436884690D6824F4E64444EA72
:1011300005248D6822F0200242EA05120B4DA842D8
:101140000ED1CD6822F0800242EA05124D6923F4E7
:10115000406343EA85038D6922F0400243EA850338
:101160004360846149688163026230BD002C0140A4
:1011700030B5026A22F480720262036A4268C4696E
:1011800023F4007324F073050C682C438D6843EA44
:1011900005230C4DA8420ED1CD6823F4006343EA29
:1011A00005234D6922F4405242EA05128D6923F469
:1011B000806342EA05124260C4614968C163036208
:1011C00030BD0000002C014030B5026A22F480528C
:1011D0000262046A4268C3690D6823F4E64343EA85
:1011E00005238D6824F4005444EA0534064DA842D2
:1011F00004D14D6922F4804242EA85124260C36103
:1012000049680164046230BD002C014010B5036AD6
:10121000046A24F001040462846924F0F00444EABE
:10122000021423F00A020A438461026210BD10B561
:10123000036A23F0100303628369046A23F4704392
:1012400043EA023224F0A00343EA01118261016201
:1012500010BDFEE7FEE702E008C8121F08C1002A21
:10126000FAD170477047002001E001C1121F002A27
:10127000FBD17047FFF772F8FFF795FEFFF77AFD95
:10128000FFF7A4FDFFF720FE0B48FFF731FC0B48EA
:10129000FFF72EFC084C962520684563084E4FF456
:1012A000FA7701213046FFF741F83846FEF74EFF46
:1012B00020684563F5E70000100000205000002082
:1012C00000080140000000000000000001020304CB
:1012D00006070809F41200080000002010000000B2
:1012E00056120008041300081000002080040000BB
:1012F000661200080100000010000000000000005D
:0413000000A24A04F9
:04000005080000ED02
:00000001FF
