:020000040800F2
:10000000480500209D010008A5010008A70100087F
:10001000A9010008AB010008AD01000800000000C4
:10002000000000000000000000000000EB190008C4
:10003000B101000800000000E9190008ED190008EE
:10004000B7010008B7010008B7010008B7010008B0
:10005000B7010008B7010008B7010008B7010008A0
:10006000B7010008B7010008B7010008B701000890
:10007000B7010008B7010008B7010008B701000880
:10008000B7010008B7010008B7010008B701000870
:10009000B7010008B7010008B7010008B701000860
:1000A000B7010008F11A0008B7010008B7010008FD
:1000B000B7010008B7010008B7010008B701000840
:1000C000B7010008B7010008B7010008B701000830
:1000D000B7010008B7010008B7010008B701000820
:1000E000B7010008B7010008B7010008B701000810
:1000F000B7010008B7010008B7010008B701000800
:10010000B7010008B7010008B7010008B7010008EF
:10011000B7010008B7010008B7010008B7010008DF
:10012000B7010008B7010008B7010008B7010008CF
:10013000B7010008B7010008B7010008B7010008BF
:10014000B7010008B7010008B7010008B7010008AF
:10015000B7010008B7010008B7010008B70100089F
:10016000B7010008B7010008B7010008B70100088F
:10017000B7010008B7010008B7010008000000003F
:10018000B7010008B7010008DFF80CD000F056FAFC
:1001900000480047C921000848050020064880475C
:1001A00006480047FEE7FEE7FEE7FEE7FEE7FEE75C
:1001B000FEE7FEE7FEE7FEE79D1A0008890100085A
:1001C0002DE9F05F0546002092469B46884606468C
:1001D000814640241BE0284641464746224600F01F
:1001E00077F953465A46C01A914110D31146184622
:1001F000224600F05EF92D1A67EB01084F462246B1
:100200000120002100F055F917EB00094E41201E96
:10021000A4F10104DFDC484631462A464346BDE8E6
:10022000F09F2DE9FE4F804681EA0300C00F0C4687
:10023000009021F0004123F00045B8EB0200A941F5
:1002400005D24046214690461C460B46024623F006
:100250000040104347D0270DC7F30A00C3F30A51EB
:100260000290401A019040286BDAC3F3130040F467
:10027000801B0098924620B10023D2EB030A63EB67
:100280000B0B01985946C0F14002504600F011F99D
:1002900006460D4650465946019A00F029F910EBE2
:1002A00008006141002487EA115284EAE7731A4387
:1002B00040D0009A62B3019A012A4FEA075215DC36
:1002C000001B61EB02014FF0004202EA0752CDE948
:1002D0000042001C41F5801132462B4600F060F9C7
:1002E00003B0BDE8F08F40462146F9E7001B61EB03
:1002F0000201001C41F5801300185B412018A2F593
:10030000001747EB030140EAD570B6196D4111E0C3
:100310006D084FEA360645EAC0754FEA0752001BE2
:1003200061EB0201001C41F5801149084FEA3000E1
:100330000019514132462B4603B0BDE8F04F00F0A2
:1003400020B90098012240000023D0EB020263EBA9
:10035000E073009821464FEAE074B8EB000061EBCF
:100360000401E9E783F000435BE781F0004158E7CF
:100370002DE9FE4F81EA030404F0004421F000411E
:1003800000944FF0000B23F0004350EA01045ED0CC
:1003900052EA03045BD0C3F30A54C1F30A552C4458
:1003A000A4F2F3340194A0FB0254C1F3130141F40D
:1003B0008011C3F3130343F4801301FB024400FBD9
:1003C000034E840A970A44EA815447EA8357A4FB00
:1003D000076802958D0A05FB07854FEA932C04FBFD
:1003E0000C542705029D4FEA065847EA1637B5EB2D
:1003F00008056EEB070C870E920E47EA811742EA5A
:100400008312A7FB0201B6EB0B0164EB00042B0D7A
:1004100043EA0C335E1844EB1C50DA465146E7FBC6
:100420000201C5F313044FEA0B3343EA14534FEAB6
:100430000432019C43EA0603A4F10C040294009CDC
:10044000CDE900B400F0ACF803B0BDE8F08F0020B7
:100450000146F9E700F0004230F000400AD0C10D3B
:1004600001F56071C0F3160042EA0151C20840076D
:100470001143704700200146704701F0004330B43B
:1004800021F0004150EA010206D00A0DA2F5607287
:10049000C1F31301002A02DC30BC00207047440F76
:1004A00044EAC104C100E01830BC00EBC25000F0C7
:1004B00031B8202A04DB203A00FA02F1002070470C
:1004C0009140C2F1200320FA03F319439040704792
:1004D000202A04DB203A21FA02F00021704721FA99
:1004E00002F3D040C2F12002914008431946704700
:1004F000202A06DBCB17203A41FA02F043EAE073E8
:1005000006E041FA02F3D040C2F1200291400843D4
:10051000194670470029A8BF7047401C490008BF12
:1005200020F00100704710B4B0FA80FC00FA0CF023
:1005300050EA010404BF10BC704749B1CCF120045B
:1005400021FA04F411FA0CF118BF012121430843E8
:10055000A3EB0C01CB1D4FEA00614FEA102042BF14
:10056000002010BC704700EBC35010440029A4BF0A
:1005700010BC7047401C490008BF20F0010010BCAF
:10058000704710B5141E73F1000408DA401C41F1E5
:10059000000192185B411A4301D120F0010010BD07
:1005A0002DE9F04D92469B4611B1B1FA81F202E07D
:1005B000B0FA80F220329046FFF77BFF04460F46E8
:1005C00040EA0A0041EA0B0153465A46084313D059
:1005D000114653EA010019D0C8F140025046FFF716
:1005E00077FF05460E46504659464246FFF761FFE3
:1005F000084305D0012004E020463946BDE8F08DCF
:100600000020054346EAE0762C4337430A98630509
:10061000E40AA0EB08000022FD0A44EA47540A302D
:1006200002D500200146E9E7010510196941DDE91D
:10063000084500196941BDE8F04DA2E7064C074D99
:1006400006E0E06840F0010394E8070098471034A2
:10065000AC42F6D3FFF79CFD20240008402400089C
:1006600070B5044600F0ECF80546601C02D0044862
:100670000078044400F0E4F8401BA042FAD370BDB7
:10068000180000202DE9F84FDFF87CB100224FF070
:1006900001084FF0030A4FF00F090BF1040E00BFE1
:1006A0000B6808FA02F42340A3426ED14D68022D74
:1006B00001D0122D0ED1D50800EB850CDCF82050AE
:1006C0005607F70E09FA07F6B5430E69BE402E43EA
:1006D000CCF82060066855000F790AFA05FC07F08F
:1006E000030726EA0C06AF40374307604E68012E29
:1006F00005D0022E03D0112E01D0122E0ED1866805
:10070000CF6826EA0C06AF40374387604668A643A9
:100710000C79C4F30014944034434460C6688C6878
:1007200026EA0C06AC403443C4604C68E40065D54E
:10073000364C256845F480452560246822F0030581
:1007400004F480440094324C2E19D6F808489507DA
:100750002F0F09FA07F5AC432E4DA84201D1002511
:1007600024E02D4DA84201D101251FE02B4DA842C8
:1007700001D102251AE02A4DA84201D1032515E036
:10078000284DA84202D1042510E037E0264DA842AA
:1007900001D105250AE0254DA84201D1062505E035
:1007A000234DA84201D1072500E00825BD4025437F
:1007B000C6F80858DBF800405D464E689C43F603D7
:1007C00000D51C432C60DEF8004075464E689C4303
:1007D000B60300D51C432C600B4D08352C684E68C1
:1007E0009C43F60200D51C432C60074D0C352C6849
:1007F0004E689C43B60200D51C432C60521C102A44
:10080000FFF44EAFBDE8F88F003C01404438024091
:100810000030014000000240000402400008024095
:10082000000C024000100240001402400018024078
:10083000001C02400AB1816170470904FBE7000017
:100840000148806870470000180000200248816855
:100850000278114481607047180000200B4810B5E1
:10086000016841F400710160016841F48061016038
:10087000016841F480710160032000F097F80020C6
:1008800000F006F800F024F8002010BD003C024003
:1008900070B50D4D04464FF47A712878B1FBF0F035
:1008A0000A490968B1FBF0F000F0FBFA48B9102CD6
:1008B00007D200222146501E00F058F800206C603C
:1008C00070BD012070BD0000180000202400002031
:1008D0001F4808B5016841F480410160006800F4D8
:1008E000804000901A48001F016841F0805101606B
:1008F000006800F080500090072000F057F80022B8
:1009000011466FF00B0000F031F8002211466FF035
:100910000A0000F02BF8002211466FF0090000F0E9
:1009200025F800221146501F00F020F80022114641
:10093000101F00F01BF800221146901E00F016F860
:100940000022BDE808401146501E00F00FB800001C
:100950004438024000F01F0201219140400980000C
:1009600000F1E020C0F8001170470000F0B40E4B19
:100970001B680C46C3F30223C3F10705042D00D9FD
:100980000425191D072901D2002300E0DB1E0126E2
:1009900006FA05F1491E214099409E40761E1640F8
:1009A0003143F0BC01F010B80CED00E0064900F056
:1009B000070208684FF6FF03184040EA0220034A86
:1009C00010430860704700000CED00E00000FA05DD
:1009D0002DE9F0470E46050065D0DFF81481D8F800
:1009E0000000F7B200F00F00B04207D288F80070A4
:1009F000D8F8000000F00F00B04254D128683D4CF8
:100A0000810712D5400703D5206840F4E0502060EC
:100A10002878000703D5206840F4604020602068F3
:100A2000A96820F0F000084320602878C0072DD086
:100A3000304968680839012812D0022813D00328E9
:100A400011D00968890700292DDA216821F00301F6
:100A500001432160FFF7F4FE814641F2883A0EE03F
:100A600009688903EFE709688901ECE7FFF7E8FE09
:100A7000A0EB0901514502D90320BDE8F0872068A9
:100A8000696800F00C00B0EB810FEFD1D8F80010CE
:100A9000404601F00F01B14207D90770006800F02D
:100AA0000F00B04201D00120E7E72878400705D5C4
:100AB0002068E96820F4E0500843206028780007A7
:100AC00006D52068296920F4604040EAC100206012
:100AD00000F01CF82168084AC1F30311515CC840BA
:100AE000064908600020FFF7D3FE0020C5E700009C
:100AF000003C024008380240102400082400002076
:100B0000014800687047000024000020154810B517
:100B1000006810F00C02144813D04110042A0FD0C2
:100B2000082A0ED10F4C241F2268236802F03F02CE
:100B30005B0207D52068C0F38810A0FB010106E026
:100B4000084610BD2168C1F38811A1FB00010023F4
:100B5000FFF736FB2168C1F30141491C4900B0FB96
:100B6000F1F010BD083802400024F4002DE9F84FE0
:100B7000050076D02878DFF8F8B2BE4CC00749D01F
:100B8000DBF800105846C1F38101012908D0006844
:100B9000C0F3810002280AD1201D0068400206D55A
:100BA0002068800336D568680028E2D032E06868A3
:100BB000B0F5803F10D0B0F5A02F206810D020F401
:100BC00080302060206820F4802020606868A0B118
:100BD000FFF736FE06460CE0206840F48030F4E76C
:100BE00040F480202060F7E7FFF72AFE801B64288E
:100BF00073D820688003F7D50CE0FFF721FE064686
:100C000005E000BFFFF71CFE801B6428F0D82068B9
:100C10008003F7D42878DFF8608280074FF000095E
:100C20003ED5DBF80010584611F00C0F09D00068D3
:100C3000C0F3810002280BD18D48001F00684002DC
:100C400006D42068800715D5E868012809D111E08D
:100C5000E868B8B10120C8F80000FFF7F1FD0646CA
:100C600005E002E1FFF7ECFD801B0228C0D82068F8
:100C70008007F7D52068296920F0F80040EAC10014
:100C800020600DE0C8F80090FFF7DAFD064604E0AA
:100C9000FFF7D6FD801B02281FD820688007F7D4F5
:100CA0002878000722D5724E744869696C3671B194
:100CB00001210160FFF7C4FD074604E0FFF7C0FD16
:100CC000C01B022809D830688007F7D50EE0C0F8AD
:100CD0000090FFF7B5FD074605E083E0FFF7B0FDA4
:100CE000C01B02287ED830688007F7D428784007D8
:100CF00068D5DFF87CA100270AF1380ADAF800008D
:100D0000C0000BD4DAF8001041F08051CAF800108E
:100D1000DAF80000012700F080500090584E30684B
:100D2000C00510D4306840F480703060FFF788FD53
:100D3000009005E0FFF784FD0099401A022851D881
:100D40003068C005F6D54A4EA868683601280FD02D
:100D50000528306810D020F001003060306820F0A5
:100D600004003060A868B8B1FFF76AFD00900FE09A
:100D7000306840F00100F4E740F004003060F7E72D
:100D8000FFF75EFD0099411A41F28830814264D834
:100D900030688007F4D50EE0FFF752FD009007E0C1
:100DA000FFF74EFD0099411A41F28830814254D834
:100DB00030688007F4D42FB1DAF8001021F08051A8
:100DC000CAF80010A869C0B3DBF80010C1F38101B4
:100DD00002294AD00228484607D0C8F86000FFF729
:100DE0002FFD00E039E005463AE04746C8F86000CC
:100DF000FFF726FD064604E0FFF722FD801B0228D0
:100E00002BD820688001F7D4D5E907010843A96AE7
:100E10001C4A490802EB01416A6A41EA821108430F
:100E200095F82C1040EA01611148001F0160012073
:100E30003866FFF705FD054605E014E0FFF700FD05
:100E4000401B022809D820688001F7D50BE000BFBD
:100E5000FFF7F6FC401B022802D90320BDE8F88FFB
:100E600020688001F4D40020F8E70120F6E70000B4
:100E7000083802400038024000004742800E4742D6
:100E8000007000400000FFFF4FF0E02104280869D7
:100E900003D020F004000861704740F00400FAE736
:100EA000704710B5401EB0F1807F01D3012010BD06
:100EB0004FF0E02460610F21601700F085FD0020F5
:100EC000A06107202061002010BD10B5FFF7E8FFEA
:100ED00010BD7047704710B590F83820012A25D012
:100EE000012280F83820CA688C6822F440722243BC
:100EF0004C6822F4806222430C6822F40062224390
:100F00000C6922F4805222434C6922F4005222439D
:100F10008C6922F48042224322F4004102680023BB
:100F20002143516480F83830002010BD022010BDEC
:100F300030B590F83820012A20D0012280F83820DE
:100F4000022380F8393003685C6824F070045C6028
:100F500003685C680D682C435C6003689C6824F03F
:100F600080049C6003689C6849680C439C6080F81E
:100F70003920002180F83810084630BD022030BDED
:100F800010B5040003D094F8390010B107E0012037
:100F900010BD002084F83800204600F00DF8022033
:100FA00084F83900211D206800F0B0FD012084F88C
:100FB0003900002010BD000008B5006811498842C2
:100FC00009D11148016841F004010160006800F096
:100FD0000400009008BD0D498842FBD10A48001D5D
:100FE000016841F4003101600068002200F4003023
:100FF000009011461920FFF7B9FCBDE80840192000
:10100000FFF7A8BC000800404038024000440140FF
:101010000168CA6842F00102CA600068016841F0D4
:10102000010101600020704770B5044690F8380057
:10103000012817D0012584F83850022084F839009F
:101040002068826822F0770222F47F42826008687A
:10105000502837D00DDC202859D005DC88B3102863
:1010600041D151E0022070BD302853D040283AD100
:101070003FE060282ED070280BD0B0F5805F03D001
:10108000B0F5005F2FD110E02068816821F00701E2
:1010900015E0CB68D1E90121206800F0A2FD2168AC
:1010A000886840F0770088601DE0CB68D1E90121B5
:1010B000206800F096FD2068816841F480418160DD
:1010C00011E01EE0CA684968206800F053FE502114
:1010D000206806E0CA684968206800F05CFE60216C
:1010E000206800F088FD84F83950002084F838002A
:1010F00070BDCA684968206800F03CFE4021206845
:10110000EFE700212068ECE710212068E9E72021C3
:101110002068E6E730212068E3E7704770B50446B1
:10112000006801694FF00005C943890715D4C168FB
:10113000C943890711D4E91E016101202076206886
:1011400080698007204602D0FFF7E7FF04E000F047
:10115000EDF8204600F09AF9257620680169C94328
:10116000490717D4C168C943490713D46FF0040174
:101170000161022020762068806910F4407F2046BB
:1011800002D0FFF7CAFF04E000F0D0F8204600F0DC
:101190007DF9257620680169C943090716D4C1681D
:1011A000C943090712D46FF00801016104202076B9
:1011B0002068C0698007204602D0FFF7AEFF04E038
:1011C00000F0B4F8204600F061F925762068016946
:1011D000C943C90617D4C168C943C90613D46FF0FF
:1011E00010010161082020762068C06910F4407F5A
:1011F000204602D0FFF791FF04E000F097F8204668
:1012000000F044F9257620680169C943C90708D16F
:10121000C168C943C90704D1891E0161204600F095
:1012200053F920680169C943090609D4C168C94353
:10123000090605D46FF0800101612046FFF749FEE1
:1012400020680169C943490609D4C168C9434906F0
:1012500005D46FF040010161204600F075F9206867
:101260000169C94389060BD4C168C943890607D4FB
:101270006FF0200101612046BDE87040FFF72ABEF3
:1012800070BD0000F0B50068214900240225032646
:10129000012785B0884209D14FF42850CDE90005D7
:1012A00002AA694682E8D0001A4813E01A49884227
:1012B00014D1C020CDE90005CDE9024669461748A2
:1012C0000495FFF7DFF90097CDE90154CDE90365F7
:1012D00069461348FFF7D6F905B0F0BD11498842B9
:1012E000FAD1CDE902464FF4E040CDE900050E4EBB
:1012F000694604953046FFF7C5F94FF40040009069
:10130000CDE9015469463046CDE90345E2E70000E6
:1013100000000140001002400004004000000240B4
:101320000004024000080040000C0240704770B505
:10133000044690F838000D4601280DD0012684F8A7
:101340003860022084F8390042B1042A18D0082AF3
:101350002AD00C2A4DD139E0022070BD206800F05F
:1013600053FC2068816941F008018161206881692E
:1013700021F004018161206881692A69114311E02B
:10138000206800F06DFC2068816941F40061816192
:101390002068816921F480618161206881692A69FE
:1013A00041EA0221816124E0206800F08BFC206882
:1013B000C16941F00801C1612068C16921F00401DF
:1013C000C1612068C1692A69114311E0206800F0F9
:1013D000A9FC2068C16941F40061C1612068C1694C
:1013E00021F48061C1612068C1692A6941EA022152
:1013F000C16184F83960002084F8380070BD10B5F0
:10140000040003D094F8390010B107E0012010BDAA
:10141000002084F83800204600F00CF8022084F800
:101420003900211D206800F071FB012084F839008B
:10143000002010BD08B500681149884212D111483A
:10144000016841F0010101600068002200F0010024
:10145000009011461920FFF789FABDE808401920CD
:10146000FFF778BA0849884209D10648001F016889
:1014700041F002010160006800F00200009008BD28
:101480000000014044380240000400407047000062
:1014900010B504460068012200F098FB0849206856
:1014A000884202D00749884203D1416C41F400418F
:1014B00041642068016841F001010160002010BD15
:1014C000000001400004014010B51A490068096895
:1014D00088422ED1B3EE040A174800F0CDFD4FF438
:1014E000C871154800F07AFC1348144990ED050ABC
:1014F000BDEEC00A81ED000A90ED070A81ED040AF5
:1015000090ED080A81ED050A426A4A60836A8B60A1
:10151000C06AC8600A490C6862630C68A363096802
:10152000C86308490C6862630C68A3630968C863F0
:101530000A6410BD0C0100202800002000000020DB
:1015400094000020D0000020704700002DE9F04FEB
:10155000684887B00024016841F01001016001680B
:1015600001F010010591016841F00401016001687A
:1015700001F004010591016841F0800101600168FA
:1015800001F080010591016841F0010101600168ED
:1015900001F001010591016841F00201016001685B
:1015A00001F002010591016841F008010160006845
:1015B000002200F00800059008214F48FFF73AF993
:1015C000012211464D48FFF735F900223A214C48D7
:1015D000FFF730F9082501260095CDE90164694639
:1015E00045480394FFF74EF80096CDE9016469463B
:1015F00042480394FFF746F800950225CDE90154CF
:101600000527CDE9034769463C48FFF73BF8DFF87B
:10161000F4800096DFF8F0B0CDE9018469465846C1
:10162000FFF730F810200090CDE901544FF0060983
:10163000CDE9034969465846FFF724F82020009079
:10164000CDE90154CDE9034769465846FFF71AF83A
:101650004FF0040ACDE900A469462C480294FFF734
:1016600011F868020090CDE90154CDE903476946BD
:101670002648FFF707F84FF4A4500090CDE9015435
:10168000CDE9034969461D48FEF7FCFF2802CDE974
:101690000004694658460294FEF7F4FF4FF4E05008
:1016A0000090CDE901540A20CDE90340694658462F
:1016B000FEF7E8FF3A200090CDE901646946104842
:1016C0000394FEF7DFFF4FF4107000901220CDE975
:1016D0000106CDE9034A69460C48FEF7D3FF0095A1
:1016E000CDE9018469460448FEF7CCFF07B0BDE8A8
:1016F000F08F000030380240001002400008024025
:10170000000C0240000012100000024000040240E1
:101710000C4810B50A490160A7214160002140F240
:10172000E732C0E902120161FFF72AFC002805D068
:10173000BDE81040E82104A000F03FBB10BD000050
:10174000004401400C0100202E2E2F436F72652FA4
:101750005372632F74696D2E6300000010B52F481B
:1017600090B02D49016014210024C0E9011440F219
:101770008F11C0E903144461FFF741FE18B1432102
:1017800027A000F01AFB0E940EA924480F94FFF72F
:10179000CFFB18B14A2122A000F00FFB6020CDE959
:1017A00000040294039404940594002269461B48A3
:1017B0000694FFF7BCFD18B1562119A000F0FDFA00
:1017C000042269461548FFF7B2FD18B15B2114A049
:1017D00000F0F3FA082269461048FFF7A8FD18B197
:1017E00060210FA000F0E9FA0794089409944FF4DF
:1017F00000500A94CDE90B4007A908480D94FFF763
:101800006AFB18B16C2106A000F0D7FA0348FFF775
:1018100039FD10B010BD000000000140580000204C
:101820002E2E2F436F72652F5372632F74696D2EA6
:101830006300000010B524488AB0224901600621E7
:101840000024C0E9011440F21F31C0E90314FFF77E
:10185000D6FD18B17F211DA000F0AFFA079407A9AB
:1018600019480894FFF764FB18B1862117A000F00F
:10187000A4FA6020CDE900040294002269461248CF
:101880000494FFF754FD18B18F2110A000F095FAD1
:10189000042269460C48FFF74AFD18B194210BA0B9
:1018A00000F08BFA082269460748FFF740FD18B19F
:1018B000992106A000F081FA0348FFF7E3FC0AB083
:1018C00010BD000000040040940000202E2E2F4385
:1018D0006F72652F5372632F74696D2E6300000061
:1018E00010B533488EB03149016014210024C0E99D
:1018F000011440F21F31C0E90314FFF741FB18B196
:10190000AD212CA000F059FA4FF48050079007A9A0
:101910002748FFF789FB18B1B32126A000F04DFA44
:101920002348FFF76CFD18B1B82122A000F045FA5A
:101930000B940BA91E480C94FFF7FAFA18B1BF21BB
:101940001CA000F03AFA6020CDE9000402940022C5
:10195000694617480494FFF7EAFC18B1C82115A09E
:1019600000F02BFA042269461148FFF7E0FC18B199
:10197000CD2110A000F021FA082269460C48FFF79B
:10198000D6FC18B1D2210BA000F017FA0C22694640
:101990000748FFF7CCFC18B1D72106A000F00DFADC
:1019A0000348FFF76FFC0EB010BD000000080040B8
:1019B000D00000202E2E2F436F72652F5372632F9D
:1019C00074696D2E630000000907090E002806DA0D
:1019D00000F00F0000F1E02080F8141D704700F1C6
:1019E000E02080F8001470477047704710B5FEF78C
:1019F0002DFFBDE81040FFF768BA000030B525485C
:101A000093B00025016841F080510160006800F04A
:101A1000805011902048016841F4804101600068C5
:101A2000022400F4804011900120039010200490C3
:101A3000009406940820CDE90750A820CDE90904B8
:101A400007200B906846FFF791F800B1FEE70CA95C
:101A50000F2081E831004FF4A0500F904FF48050D8
:101A6000109005210CA8FEF7B3FF00B1FEE7FFF7C9
:101A700047F84FF47A71B0FBF1F0FFF712FA042047
:101A8000FFF702FA00221146501EFEF76FFF13B057
:101A900030BD00004038024000700040104801682E
:101AA00041F4700101600F48016841F001010160DB
:101AB0000C4A00210832116002680B4B1A40026088
:101AC000031D0A4A1A60026822F480220260054857
:101AD0000C300160024958068039086070470000E8
:101AE00088ED00E000380240FFFFF6FE10300024D1
:101AF00010B50448FFF712FBBDE810400248FFF79D
:101B00000DBB0000580000200C010020F0B5026859
:101B1000234B244D244E254F254C4FF0804C9842AA
:101B200009D0604507D0A84205D0B04203D0B842E2
:101B300001D0A04204D122F0700E4A6842EA0E029F
:101B400098421BD0604519D0A84217D0B04215D09A
:101B5000B84213D0A04211D0164DA8420ED0164D57
:101B6000A8420BD0154DA84208D0154DA84205D06B
:101B7000144DA84202D0144DA84203D122F440755E
:101B8000CA682A4302608A68C2620A68826298420E
:101B900001D0A04201D10969016301214161F0BD79
:101BA000000001400004004000080040000C00401C
:101BB0000004014000400140004401400048014051
:101BC00000180040001C00400020004010B5012318
:101BD000046A8B409C430462036A8A401343036295
:101BE00010BD10B5846842EA032224F47F440A43FE
:101BF0002243826010BD826822F070020A4342F0E4
:101C0000070181607047000030B5026A22F00102CE
:101C10000262026A436884690D6824F073042543F4
:101C200022F002048A6822430B4CA04202D00B4CE3
:101C3000A0420BD122F00804CA6823F44073224367
:101C40004C6922F004021C438B6923434360856185
:101C500049684163026230BD000001400004014058
:101C600030B5026A22F010020262026A4368846997
:101C70000D6824F4E64444EA05248D6822F020022D
:101C800042EA05120D4DA84202D00D4DA8420ED1D8
:101C9000CD6822F0800242EA05124D6923F44063C8
:101CA00043EA85038D6922F0400243EA85034360DD
:101CB000846149688163026230BD00000000014018
:101CC0000004014030B5026A22F480720262036AA5
:101CD0004268C46923F4007324F073050C682C4334
:101CE0008D6843EA05230D4DA84202D00C4DA84251
:101CF0000ED1CD6823F4006343EA05234D6922F435
:101D0000405242EA05128D6923F4806342EA0512CB
:101D10004260C4614968C163036230BD0000014094
:101D20000004014030B5026A22F480520262046A63
:101D30004268C3690D6823F4E64343EA05238D68CE
:101D400024F4005444EA0534084DA84202D0084D5A
:101D5000A84204D14D6922F4804242EA85124260D1
:101D6000C36149680164046230BD000000000140A5
:101D70000004014010B5036A046A24F001040462FF
:101D8000846924F0F00444EA021423F00A020A43AE
:101D90008461026210BD10B5036A23F01003036270
:101DA0008369046A23F4704343EA023224F0A003F7
:101DB00043EA01118261016210BDFEE702E008C83A
:101DC000121F08C1002AFAD170477047002001E0B5
:101DD00001C1121F002AFBD17047000070B50546F3
:101DE0002DED0A8B0C46D0ED089A90ED07BAF0EE77
:101DF000E98A18EE900AFEF72DFB9FED9BAB53ECA2
:101E00001A2BFEF7B5FA41EC1C0BB0EECB9A19EE8B
:101E1000100AFEF71FFB53EC1C2BFEF702FAFEF72D
:101E20002CFB08EE100A18EE900AFEF713FB53EC99
:101E30001A2BFEF79DFA41EC1A0B19EE100AFEF769
:101E400009FB53EC1A2BFEF78DFAFEF716FB09EE91
:101E5000100A18EE900AFEF7FDFA9FED851B53EC71
:101E6000112BFEF785FAFEF708FB00EE900AF5EE5F
:101E7000C09A0020F1EE10FA00D26420B5EEC0BA8C
:101E8000F1EE10FA00D20A30B5EEC09AF1EE10FA77
:101E900000D2401CB7EE000AB0EE001A64287DD0D4
:101EA00007DC88B1012823D00A2826D00B2806D1C8
:101EB00047E0652873D06E2872D06F2871D000BFBC
:101EC00000BFBDEC0A8B70BD01EE904A38EE002ACF
:101ED000F8EEE11A62EE211AFCEEE11A11EE900A18
:101EE000686230EE480AF0EE401A40EE811A8EE049
:101EF000F0EE401A49EE011A27E001EE904A30EE6A
:101F0000482AF8EEE11A62EE211AFCEEE11A11EE0F
:101F1000900A686201EE904A38EE000AF8EEE11A83
:101F200060EE211AFCEEE11A11EE900AA86200EEB2
:101F3000C10A00BF00EE904AF8EEE00A20EE200A47
:101F400026E0F0EE401A48EE411A01EE104AB8EED3
:101F5000C11A71EEA01A21EE811ABCEEC11A11EE5F
:101F6000100A686201EE104A70EE801AB8EEC11ACB
:101F700021EE811ABCEEC11A11EE100AA86270EEB1
:101F8000600A00BF00EE104AB8EEC00A20EE800AD8
:101F9000BCEEC00A10EE100AE86292E702E01EE012
:101FA00022E040E001EE904A38EE002AF8EEE11A15
:101FB00062EE211AFCEEE11A11EE900A686201EE5F
:101FC000904A30EE480AF8EEE11A60EE211AFCEE73
:101FD000E11A11EE900AA86200EE810AAAE7F0EE7B
:101FE000401A49EE011A22E001EE904A30EE482AEA
:101FF000F8EEE11A62EE211AFCEEE11A11EE900AF7
:10200000686238EE000AF0EE401A40EEC11A00EEA7
:10201000904AF8EEE00A61EEA00AFCEEE00A10EE4B
:10202000900AA86286E7F0EE401A48EE411A01EEE7
:10203000104AB8EEC11A71EEA01A21EE811ABCEE58
:10204000C11A11EE100A686201EE104A70EE601AB1
:10205000B8EEC11A21EE811ABCEEC11A11EE100AB7
:10206000A86270EE800A8DE799BB96900F7AE23FE6
:10207000280F0BB5A679F23F10B580ED040AD0ED1C
:10208000020A90ED001A0346234940EE010AB2EE1F
:10209000081AC0ED030AD0ED030AD0ED061A80EE4F
:1020A000810A90ED041AF0EEC00A90ED050A01EEE7
:1020B000210A80ED050A90ED050A10EE100A9FED49
:1020C000170A884205DB93ED051A31EE401A83EDBD
:1020D000051A93ED051AB5EEC01AF1EE10FA05D205
:1020E00093ED051A31EE000A83ED050A93ED050A1A
:1020F000BDEEC00A10EE104A204600F011F820EEA6
:10210000200A204683ED070A00F030F820EE200A6E
:1021100083ED080A10BD00000000B4430000B44382
:10212000114A5B2806DAC0F15A0002EB800090EDFC
:10213000000A70470C49B52801EB800102DA11ED65
:102140005A0A08E0B0F5877F08DCC0F5877002EB1B
:10215000800090ED000AB1EE400A7047A1F50061E1
:1021600091EDF20A70470000A42200080F4A5B2894
:1021700002EB800102DA91ED000A7047B52806DA19
:10218000C0F1B40002EB800090ED000A7047B0F59A
:10219000877F02DC11EDB40A05E0C0F5B47002EBF4
:1021A000800090ED000AB1EE400A7047A4220008BA
:1021B000C0ED021A80ED002A80ED011A80ED060ABA
:1021C000C0ED050A70470000FEF748FBFFF716FC5C
:1021D000FFF7BCF9FFF7C2FAFFF79AFAFFF780FBA7
:1021E000FFF728FB9FED272ADFED271AB2EE081A2A
:1021F000F3EE040A9FED250A2548FFF7D9FF254C89
:10220000012202212046FEF715FB0122082120466B
:10221000FEF710FB012220212046FEF70BFB0021D8
:102220001D48FFF735F904211B48FFF731F9082154
:102230001948FFF72DF900211848FFF729F9042163
:102240001648FFF725F908211448FFF721F90C215A
:102250001248FFF71DF910486421026851630268B3
:10226000002191630068C1634FF4FA70FEF7F8F93A
:102270000B48FEF7CDFE00BF00BF00BF00BF00BF90
:1022800000BFF8E7295C8F3DCDCC4C3FEC51B83E08
:1022900028000020000C024094000020D000002004
:1022A0000C01002000000000295C8F3C4DF30E3D26
:1022B0008638563D4DF38E3DEA95B23D1904D63D24
:1022C000B5A6F93D728A0E3E5227203E33C4313EF8
:1022D0001361433EBDE3543E6666663EA2B4773E5C
:1022E0006F81843E711B8D3E74B5953E3F359E3E99
:1022F0000BB5A63EA01AAF3E3480B73E92CBBF3E90
:10230000D509C83EFB3AD03E075FD83EF775E03EA0
:10231000B072E83E4E62F03EB537F83E0000003F36
:102320000AD7033F87A7073FE86A0B3FBB270F3F4A
:1023300073D7123F107A163F910F1A3F849E1D3FAC
:10234000CE19213F8A8E243F2BF6273F234A2B3F6D
:102350008D972E3FDCD7313F8104353F0B24383F2A
:10236000083D3B3FCD3B3E3F0534413F9318443F42
:1023700007F0463F5EBA493F0D714C3FA01A4F3FF0
:1023800017B7513F5839543F0BB5563F8716593F41
:1023900076715B3F2DB25D3FC9E55F3FBC05623F93
:1023A0009318643FC217663F4703683F23DB693FCA
:1023B000E3A56B3FFB5C6D3F69006F3F2E90703F64
:1023C0004A0C723F4A7B733F14D0743FC217763F6A
:1023D0003945773F9565783F4772793FC3647A3FC7
:1023E000234A7B3FDA1B7C3FE8D97C3F4D847D3F0D
:1023F0007B147E3F8D977E3FF7067F3FB7627F3F1E
:1024000040A47F3FAED87F3FE5F27F3F0000803F92
:102410000000000000000000010203040607080994
:10242000402400080000002028000000BC1D000817
:10243000682400082800002020050000CC1D0008AA
:10244000000000000000000000000000000000008C
:10245000000000000000000001000000100000006B
:08246000000000000024F4005C
:040000050800018965
:00000001FF
